S01000006275696C642F312E312E73313915
S3152000000000BFDFF814D002F054F900F061FB02F0D3
S3152000001062B9FEE700BF000000C0012080B586B0AF
S3152000002000AF7860396007F10C031A460A490B487D
S3152000003001F08AF80A4B1A460A490B4801F084F85F
S3152000004007F10C0303331A460649074801F07CF8EA
S3152000005000BF1837BD4680BD29190020009000201A
S31520000060E0820020C31B00207890002080B584B059
S3152000007002AF786039606F4B1A466F496F4801F0BE
S3152000008063F83A686E496D4801F05EF86D4B1A4682
S3152000009069496A4801F058F83B68332B4ADC3B68CB
S315200000A02B2B2DDAC0E03B68643B112B00F2BC8081
S315200000B001A252F823F000BF8B0100202902002064
S315200000C029020020290200202902002029020020DE
S315200000D0E5010020290200202902002043010020FA
S315200000E029020020290200202902002029020020BE
S315200000F0290200202902002029020020790100205F
S315200001003B682B3B082B00F28F8001A252F823F08C
S315200001105501002029020020670100202902002025
S3152000012029020020290200209D010020B50100207F
S31520000130CD0100203B68752B76DC3B68642BB2DA58
S3152000014072E000230093404B7A680021002000F0E3
S315200001505DFF6AE0002300933C4B7A680021002073
S3152000016000F054FF61E000230093394B7A680021A8
S31520000170002000F04BFF58E000230093354B364A11
S315200001800021002000F042FF4FE000230093334B74
S31520000190314A0021002000F039FF46E04FF47A7101
S315200001A0786800F011F92E4B1A462349234800F0AF
S315200001B0CBFF3AE040F20131786800F005F9294B8F
S315200001C01A461D491D4800F0BFFF2EE040F21921B6
S315200001D0786800F0F9F8244B1A461749174800F0BA
S315200001E0B3FF22E07B685B6B002B06D01F4B1A46C1
S315200001F01149124800F0A8FF05E01D4B1A460E498A
S315200002000E4800F0A1FF002300931A4B7A680021C4
S31520000210002000F0FBFE00230093174B0E4A00211E
S31520000220002000F0F3FE00E000BF00BF0837BD4607
S3152000023080BD00BFF4820020C31B002078900020E0
S31520000240191C0020FC820020D10200202903002056
S31520000250790300209105002098940020D9050020DC
S315200002600083002014830020288300203C83002064
S31520000270548300207D020020A702002080B483B092
S3152000028000AF786039607B685B6B002B0CBF012365
S315200002900023DBB21A467B685A6300BF0C37BD4683
S315200002A05DF8047B704780B483B000AF7860396016
S315200002B07B68DB68002B0CBF01230023DBB21A46C8
S315200002C07B68DA6000BF0C37BD465DF8047B70475B
S315200002D080B582B000AF786039607B68DB6A002B1E
S315200002E00CBF01230023DBB21A467B68DA627B68E7
S315200002F0DB6A002B06D0084B1A460849084800F04E
S3152000030023FF05E0074B1A460449054800F01CFF69
S3152000031000BF0837BD4680BD6C830020C31B00206C
S31520000320789000207483002080B58AB000AF786072
S3152000033039607B689B6A132B04DC7B689B6A5A1C9A
S315200003407B689A627B689B6A07F10800074A20212E
S3152000035007F05CFA07F108031A460549054800F03C
S31520000360F3FE00BF2837BD4680BD00BF8083002036
S31520000370C31B00207890002080B58AB000AF78603B
S3152000038039607B689B6A002B04DD7B689B6A5A1E5A
S315200003907B689A627B689B6A07F10800074A2021DE
S315200003A007F034FA07F108031A460549054800F014
S315200003B0CBFE00BF2837BD4680BD00BF808300200E
S315200003C0C31B00207890002080B483B000AF7860F3
S315200003D039603B685B00054A92FBF3F27B681A633F
S315200003E000BF0C37BD465DF8047B704740420F00C6
S315200003F02DE9B043A6B002AF7860396000F0C2FFA5
S31520000400C7F88C00464B1B68002B06D1454B0022B3
S315200004101A70434B01221A600DE07B68DB6A002BC1
S3152000042003D17B689B6ADBB200E000233D4A137050
S315200004303B4B00221A6000F0A5FF0246D7F88C300D
S31520000440D31AC7F88830384B1B68B3F5FA7F1EDA03
S31520000450364B1B68D7F888209A4203DD334AD7F8F3
S3152000046088301360D7F88830DA171C461546304B8B
S31520000470D3E9002314EB020845EB03092C4BC3E90F
S315200004800089294B1B680133274A13602EE0264B2F
S315200004901B68B3F5FA7F29D1244B1A6813469B00B3
S315200004A013445B001C46224BD3E900014FF4FA7239
S315200004B04FF0000306F058FF02460B4613469B00FA
S315200004C013445B0007F1080000932346194A802154
S315200004D007F09CF907F108031A461749174800F058
S315200004E033FE114B1B6801330F4A13607B681B6B6D
S315200004F0134A82FB03129210DB17D01A7B685B6BC0
S31520000500012B01D10A2100E00021002300930D4B8D
S315200005107A6800F07BFD00BF9037BD46BDE8B0830A
S3152000052000A000201C74004004A0002008A0002089
S3152000053010A000208C830020C31B00207890002070
S3152000054067666666F103002080B586B002AF7860E4
S3152000055039600023FB6002E0FB680133FB607B68A7
S315200005609B68FA689A42F7DB7B68DB68012B01D12E
S31520000570822100E0002100230093044B7A68822028
S3152000058000F044FD00BF1037BD4680BD4905002060
S3152000059080B58AB000AF786039607B689B6803F5C8
S315200005A0FA727B689A607B689B6807F10800074AA5
S315200005B0202107F02BF907F108031A4604490548BC
S315200005C000F0C2FD00BF2837BD4680BDB4830020A1
S315200005D0C31B00207890002080B58AB000AF7860D9
S315200005E039607B689B68B3F5FA7F05DD7B689B687D
S315200005F0A3F5FA727B689A607B689B6807F108000E
S31520000600074A202107F002F907F108031A4605498F
S31520000610054800F099FD00BF2837BD4680BD00BFC4
S31520000620B4830020C31B00207890002080B588B0BA
S3152000063002AF7860396000221D491E4800F084FD13
S3152000064000221D491D4800F07FFD1D4B1A461D49FD
S315200006501A4800F079FD01233B7301237B7306239F
S31520000660BB734823FB7365233B746C237B746C2319
S31520000670BB746F23FB7400233B7507F10C031A46EA
S3152000068011490C4800F060FD7B6803229A627B6862
S315200006904FF4FA721A63002300930C4B7A680021F8
S315200006A0002000F0B3FC00BF1837BD4680BD00BF58
S315200006B0E9160020009000201D1B002078900020C5
S315200006C0C0830020C31B0020F3190020F103002063
S315200006D080B500AF00220849084800F029FF012212
S315200006E00749084800F024FF00220749074800F080
S315200006F085FF0023184680BD4F1C002078900020DF
S31520000700A1170020009000202D06002018A0002010
S3152000071080B483B000AF0346FB71FB7903F01F035F
S31520000720012202FA03F1064A97F907305B0942F8DB
S31520000730231000BF0C37BD465DF8047B704700BF11
S3152000074000E100E080B483B000AF03463960FB715E
S3152000075097F90730002B0BDA3B68DAB20C49FB79A4
S3152000076003F00F03043B1201D2B20B441A7609E0C0
S315200007703B68DAB2074997F907301201D2B20B4427
S3152000078083F8002300BF0C37BD465DF8047B704715
S3152000079000ED00E000E100E080B582B000AF7860B7
S315200007A00EE07B681B780D2B07D07B685A1C7A607D
S315200007B01B78184600F05EF902E07B6801337B6007
S315200007C07B681B78002BECD100BF00BF0837BD46E5
S315200007D080BD80B586B000AF786000237B617B68E2
S315200007E003F00F027B69591C796110498A5C183322
S315200007F03B4403F80C2C7B681B097B607B68002B31
S31520000800EDD10AE07B69013B7B6107F10C027B6934
S3152000081013441B78184600F02DF97B69002BF1D183
S3152000082000BF00BF1837BD4680BD00BFA89400207A
S3152000083080B59EB000AF78607B68002B02DA4FF05F
S31520000840FF3300E001233B677B683A6F02FB03F32B
S315200008507B6000237B6779681C4B83FB01239A10FE
S31520000860CB17D21A13469B0013445B00CA1A7B6F20
S31520000870591C796716498A5C78333B4403F86C2CFB
S315200008807B68124A82FB03129210DB17D31A7B6015
S315200008907B68002BDFD13B6F002B0EDA2D2000F07A
S315200008A0E9F80AE07B6F013B7B6707F10C027B6F5F
S315200008B013441B78184600F0DDF87B6F002BF1D12E
S315200008C000BF00BF7837BD4680BD00BF676666663D
S315200008D0A894002080B483B000AF10237B607B688F
S315200008E083F3118800BF00BF0C37BD465DF8047B3B
S315200008F0704780B483B000AF30237B607B6883F37E
S31520000900118800BF00BF0C37BD465DF8047B7047D9
S3152000091080B584B000AF78600B48FFF73DFF0B4BE6
S315200009201B68002B02D1094B094A1A60074B1B682A
S31520000930FB60064B1A687B681344044A1360FB6805
S3152000094018461037BD4680BDD483002050A0002015
S31520000950D423012080B485B000AF786039603B682D
S3152000096003F5F95310337A6813607B681B68BB6004
S315200009700023FB6009E0FB689A00BB6813441A4613
S3152000098000231360FB680133FB60FB68332BF2DD29
S31520000990BB686FF016021A60BB6804331A4603233D
S315200009A01360BB6884331A464FF08073136000BF10
S315200009B01437BD465DF8047B704780B485B000AF20
S315200009C0786039607B681B688033FB60FB683A6817
S315200009D01A6000BF1437BD465DF8047B704780B5AA
S315200009E084B000AF1C4804F0F9F93B1D184604F00A
S315200009F041FB40F24733BB803B1D1946164804F0A5
S31520000A00CDFA164B164A1A6002216FF00100FFF745
S31520000A1099FE144B144A1A6000216FF00400FFF768
S31520000A2091FE124B124A1A6002213220FFF78AFEEB
S31520000A303220FFF76DFE0021074804F065FB0121F7
S31520000A40054804F02EFC01220221034805F0FDFB97
S31520000A5000BF1037BD4680BD000C004038C00120C5
S31520000A60DD1E00202CC00120D91E002008C1012037
S31520000A70FB0D002080B582B000AF0346FB71FB79E9
S31520000A809BB21946074806F0DAF900BF80210548CF
S31520000A9006F0C4FB0346002BF8D000BF00BF083782
S31520000AA0BD4680BD0010014080B500AF124804F05D
S31520000AB047FB03461A46114B1A60114B01221A6056
S31520000AC0104B00221A60104B1B68002B06D00E4BD1
S31520000AD01B680E4A1268002110469847084B0022D0
S31520000AE01A60084B1B68002B01D000F05DFA054BFD
S31520000AF000221A6080BD00BF000C00409C2301200C
S31520000B009423012098230120A8230120B423012027
S31520000B1080B500AF124804F013FB03461A46114B6A
S31520000B201A60114B01221A60104B00221A60104BDA
S31520000B305B68002B06D00E4B5B680E4A526801217B
S31520000B4010469847084B00221A60084B1B68002B5A
S31520000B5001D000F029FA054B00221A6080BD00BFA3
S31520000B60000C00409C23012094230120982301207F
S31520000B70A8230120B423012080B500AF124804F039
S31520000B80DFFA03461A46114B1A60114B01221A60EE
S31520000B90104B00221A60104B9B68002B06D00E4B80
S31520000BA09B680E4A9268022110469847084B0022FD
S31520000BB01A60084B1B68002B01D000F0F5F9054B95
S31520000BC000221A6080BD00BF000C00409C2301203B
S31520000BD09423012098230120A8230120B423012057
S31520000BE080B485B000AF786039600023FB603B6835
S31520000BF01B68BB6004E0BB68FB60BB681B68BB600E
S31520000C00BB68002B05D0BB689A687B689B689A42B4
S31520000C10F1DD7B68BA681A60FB68002B03D13B685C
S31520000C207A681A6002E0FB687A681A6000BF143797
S31520000C30BD465DF8047B704780B485B000AF786010
S31520000C4039600023FB603B681B68BB6004E0BB681F
S31520000C50FB60BB681B68BB60BB68002B05D0BB680C
S31520000C605A687B685B689A42F1DD7B68BA681A60CD
S31520000C70FB68002B03D13B687A681A6002E0FB68A8
S31520000C807A681A6000BF1437BD465DF8047B70474A
S31520000C9080B584B000AF78607B681B68FB60FB681A
S31520000CA0002B04D0FB681A687B681A600CE00948A0
S31520000CB0FFF772FD00220221074803F00AF90748D0
S31520000CC0FFF76AFD30BFFDE7FB6818461037BD46C3
S31520000CD080BD00BFEC83002000040240F883002082
S31520000CE080B584B000AF78607B681B68FB60FB68CA
S31520000CF0002B04D0FB681A687B681A600CE0094850
S31520000D00FFF74AFD00220221074803F0E2F80748D0
S31520000D10FFF742FD30BFFDE7FB6818461037BD469A
S31520000D2080BD00BFEC830020000402400484002024
S31520000D3080B483B000AF786039603B681A687B68FE
S31520000D401A603B687A681A6000BF0C37BD465DF8AA
S31520000D50047B704780B483B000AF786039603B680D
S31520000D601A687B689A603B687A681A6000BF0C37FD
S31520000D70BD465DF8047B704780B485B000AF7860CF
S31520000D807B681B68FB60FB689A687B681A60FB6857
S31520000D9018461437BD465DF8047B704780B485B08D
S31520000DA000AF786039600023FB603B681B68BB603E
S31520000DB004E0BB68FB60BB681B68BB60BB68002B9C
S31520000DC003D0BA687B689A42F3D1BB68002B0DD05A
S31520000DD0FB68002B04D0BB681A68FB681A6003E026
S31520000DE0BB681A683B681A60012300E00023184696
S31520000DF01437BD465DF8047B704780B582B000AFDE
S31520000E0002211E4805F0ABFA1C4804F099F9034666
S31520000E107B6007E01A48FFF73BFF0346194918464F
S31520000E20FFF7DEFE164B1B68002B06D0144B1B6803
S31520000E305A687B68D31A002BECDD114B1B68002BFC
S31520000E4016D00E4804F07CF903463B600C4B1B6819
S31520000E505B683A689A4204DD002202210A4803F0C0
S31520000E6038F8074B1B685B681946044804F0A7FC52
S31520000E7000F09AF800BF0837BD4680BD000C004040
S31520000E80902301208C230120000402400346024ABD
S31520000E90136010DFF74600BFA42301200346054A4E
S31520000EA01360054B5B68044A43F080535360F74652
S31520000EB000BF00BFA423012000ED00E080B582B072
S31520000EC000AF7860094B5B68C3F30803002B03D19E
S31520000ED07868FFF7DBFF02E07868FFF7DFFFFFF7B0
S31520000EE008FD00BF0837BD4680BD00BF00ED00E00D
S31520000EF090B585B000AF234B1C682348FFF7C8FE8A
S31520000F000346E360E368BB60FFF7F3FCBB68D86881
S31520000F10BB681969BB685B691A4600F015F9FFF7CB
S31520000F20D9FC1A49B868FFF703FF194B1B689B6861
S31520000F30DB687B60144B1B68002B0AD07B68002B78
S31520000F40D9D0114B1B689A687B689B68D31A002BF3
S31520000F50D1DD0F48FFF710FF03460E491846FFF76D
S31520000F60F9FE0B4B1B68FB6003E0FB681B691B68E3
S31520000F70FB60FB681B69002BF7D1F868FFF79EFF23
S31520000F80B9E700BFC89400208C230120BC94002020
S31520000F90C4940020C094002080B500AF00F004F86F
S31520000FA0FFF7A7FC30BFFBE780B582B000AF144B3C
S31520000FB01B68DB687B60134B1B68002B1BD0124B16
S31520000FC01B68002B17D07B68002B07D00D4B1B68A6
S31520000FD09A687B689B68D31A002B0CDA0A48FFF7BD
S31520000FE0CBFE034606491846FFF7B4FE044B1B68A2
S31520000FF01846FFF763FF00BF0837BD4680BD00BF18
S31520001000C49400208C230120C094002080B588B091
S3152000101000AFF860B9607A603B60EFF312833B6102
S315200010203B691B09012B14BF01230023DBB2FB778D
S31520001030FFF750FC3A48FFF753FEB861BB697A6860
S31520001040DA60BB693A681A61BB69BA6A5A61354B7C
S315200010501B68002B04D1344B1B68DB685B6801E0FE
S31520001060324B1B68FA681A44BB695A60BB695A68D6
S31520001070BB68002B01DDBB6801E06FF000431A441A
S31520001080BB699A602A4804F05BF803467B61BB691A
S315200010905A687B69D31A002B16DD2649B869FFF7F3
S315200010A0CBFD244B1B685B687A699A4204DD0022DB
S315200010B00221214802F00DFF1E4B1B685B68194672
S315200010C01B4804F07CFB21E01C49B869FFF788FD2A
S315200010D0FB7F002B1AD01A4B1B68002B16D0174B00
S315200010E01B689A68174B1B68DB689B68D31A002B12
S315200010F00CDA1348FFF740FE034612491846FFF75D
S3152000110029FE104B1B681846FFF7D8FEFB7F002BE5
S3152000111001D0FFF7EEFBBB6918462037BD4680BDE0
S31520001120BC94002094230120C89400209C230120F5
S31520001130000C004090230120000402408C23012053
S31520001140C0940020C494002080B588B000AFF86019
S31520001150B9607A60EFF312833B613B691B09012B6F
S3152000116014BF01230023DBB2FB76FFF7B3FBFB683A
S315200011701B68FB61FB69002B37D003E0FB691B6909
S315200011801B68FB61FB691B69002BF7D1304B1B6881
S31520001190FA699A4202D0FB7E002B07D1FB7E002BF8
S315200011A001D0FFF7A6FB4FF0FF334DE0FB685B68ED
S315200011B0002B03D0FB685B6800221A61244B1A6857
S315200011C0FB685A60224B1B68FA681A61F869FFF7B8
S315200011D075FE1F4B1B68DB68002B06D1FB7E002BA0
S315200011E001D0FFF786FB00232EE0194B1A68FB6817
S315200011F01A60FB7E002B05D0FB685B68012B01D0B3
S31520001200FFF777FBBB687968F86898477861FFF73E
S3152000121061FBFB6800221A60FB685B68FB61FB6967
S31520001220002B0BD0FB69012B08D0FB6800225A60EB
S31520001230FB6900221A61F869FFF740FEFB7E002B4E
S3152000124001D0FFF756FB7B6918462037BD4680BD87
S31520001250C894002080B586B000AF7860EFF3128383
S31520001260FB60FB681B09012B14BF01230023DBB2A3
S31520001270FB74FFF72FFB1F497868FFF78FFD0346A6
S31520001280002B06D11C497868FFF788FD0346002B02
S3152000129004D01A497868FFF74BFD21E0184B1B68EC
S315200012A07B611AE0174B1B687A699A4212D07B69D8
S315200012B0DB687A689A420DD17B691A697B68DB689C
S315200012C09A4207D17B690022DA600C497868FFF7D9
S315200012D02FFD05E07B699B687B617B69002BE1D153
S315200012E0FB7C002B01D0FFF704FB00BF1837BD465F
S315200012F080BD00BF902301208C230120BC940020B8
S31520001300C4940020C894002080B485B000AF7860D3
S31520001310EFF31283FB60FB681B09012B04D0074BFC
S315200013201B68DB685B6801E0054B1B687A68136005
S3152000133000BF1437BD465DF8047B7047C894002073
S315200013409C23012080B485B000AF7860EFF3128330
S31520001350FB60FB681B09012B04D0084B1B68DB686C
S315200013605B6801E0064B1B687A6812689B1A184670
S315200013701437BD465DF8047B704700BFC894002033
S315200013809C23012080B584B000AFEFF312837B60ED
S315200013907B681B09012B14BF01230023DBB2FB73DF
S315200013A0FFF798FA0C4803F0CBFE0346BB60FB7BA5
S315200013B0002B01D0FFF79DFAFB7B002B04D0074BB7
S315200013C01B68DB685B6801E0054B1B68BA68D31AAB
S315200013D018461037BD4680BD000C0040C89400203A
S315200013E09C23012080B582B000AF00237B6012E0F1
S315200013F07B685A1C13465B001344DB00444A991849
S3152000140043487A6813465B001344DB0003441960A3
S315200014107B6801337B607B681C2BE9DD3C4B00221B
S31520001420C3F8B82200237B6013E07B685A1C13465E
S315200014309B0013449B00374A991836487A6813460E
S315200014409B0013449B000344083319607B680133D7
S315200014507B607B68022BE8DD2E4B00225A6400233A
S315200014607B6030E02B497A6813469B0013449B002F
S315200014700B4404337A681A607A6813469B00134437
S315200014809B00244A1A447B685B0323490B44194674
S315200014901046FFF75FFA7A6813469B0013449B00B9
S315200014A01C4A13441D491846FFF787FA19497A68DA
S315200014B013469B0013449B000B44103300221A60F2
S315200014C07B6801337B607B68032BCBDD144B4FF0AD
S315200014D0FF325A60124B00229A60114B00221A6189
S315200014E00F4B0022DA600F48FFF756F90E48FFF738
S315200014F053F90E48FFF750F90A48FFF74DF9094806
S31520001500FFF74AF9FFF76BFA00BF0837BD4680BDE3
S3152000151054A0002024A3002078A30020F10E002050
S3152000152078230120108400201484002020840020A9
S3152000153080B586B000AFF860B9601346FB71FB79C1
S31520001540022B41D8EFF312833B613B691B09012B28
S3152000155014BF01230023DBB2FB75FFF7BBF9FB7930
S31520001560022B0ED0022B10DC002B02D0012B04D034
S315200015700BE0174B174A1A6014E0174B174A1A60EC
S3152000158010E0174B174A1A600CE01748FFF704F9CA
S3152000159000220221154802F09CFC1548FFF7FCF8B2
S315200015A030BFFDE7FB791349FA6841F82320FB7920
S315200015B01149BA6841F82320FB6801225A60FB7D55
S315200015C0002B01D0FFF795F900BF1837BD4680BD27
S315200015D0D4C00120A90A002090C00120110B0020B0
S315200015E09CC00120790B0020EC83002000040240DF
S315200015F038840020B4230120A823012080B586B09A
S3152000160002AFF860B9607A60FFF764F9FFF7EAFE87
S31520001610BB68002B16D00F4803F092FD03461A46EE
S315200016200D4B1A600D4B01221A607B680093BB6834
S31520001630FA6800210020FFF7E9FC084B00221A6017
S31520001640FFF7B2FCFFF7A8FC002318461037BD466B
S3152000165080BD00BF000C00409C2301209423012064
S3152000166080B483B000AF0346FB71FB7903F01F0300
S31520001670012202FA03F1064A97F907305B0942F87C
S31520001680231000BF0C37BD465DF8047B704700BFB2
S3152000169000E100E080B483B000AF03463960FB71FF
S315200016A097F90730002B0BDA3B68DAB20C49FB7945
S315200016B003F00F03043B1201D2B20B441A7609E061
S315200016C03B68DAB2074997F907301201D2B20B44C8
S315200016D083F8002300BF0C37BD465DF8047B7047B6
S315200016E000ED00E000E100E080B586B000AF786054
S315200016F039607B6800229A617B689A697B685A61A7
S315200017007B685A697B68DA6107F10C03184600F09A
S31520001710A5FF0023BB740023FB7400233B75002325
S315200017207B750023BB750023FB750023BB73002349
S31520001730FB7302233B7403237B740723BB8107F1CE
S315200017400C031946124800F0F5FD0346002B02D182
S315200017501048FFF721F807F10C0319460E4800F050
S31520001760E9FD0346002B02D10C48FFF715F80221AC
S315200017701420FFF78FFF1420FFF772FF01220221AA
S31520001780034801F0A9FB00BF1837BD4680BD00BF46
S3152000179000640040588400200068004070840020C7
S315200017A0B0B58AB002AF786039607B689B685A49C9
S315200017B0184601F0AFFB0346012B02D05748FEF72F
S315200017C0EBFF7B68DB69072B00F39E807B689B68B9
S315200017D007F108020021184601F084F9BB681B09AD
S315200017E0DBB27A68526903F07F03D8B27968134670
S315200017F09B0013445B0013440B44203302461A70AB
S31520001800BB68DBB27A68526903F00F03D8B27968F5
S3152000181013469B0013445B0013440B4421330246BA
S315200018201A70BB7C7A68526903F00F03D8B27968C4
S3152000183013469B0013445B0013440B442233024699
S315200018401A700023FB7715E0FB7F7A685269F97FCF
S3152000185020333B4413F80D4C786813469B00134401
S315200018605B00134403440B44233322461A70FB7F48
S315200018700133FB777B685A69796813469B001344CA
S315200018805B0013440B4422331B78FA7F9A42DBD346
S315200018907B68DB68002B25D07B68DC687B681D694C
S315200018A07B685A69796813469B0013445B0013448E
S315200018B00B4420331B7819017B685A6978681346D4
S315200018C09B0013445B001344034421331B780B44D1
S315200018D000932B46224600210020FFF797FB104B52
S315200018E001221A607B685B6901335A4203F00703C1
S315200018F002F0070258BF53427A6853617B68DB695E
S315200019005A1C7B68DA6102E00648FEF745FF00BFF5
S315200019102037BD46B0BD00BF0300001288840020DA
S3152000192098230120B084002090B484B000AF786062
S3152000193039607B68DB69002B55DD7B689A6979689D
S3152000194013469B0013445B0013440B4420331A7840
S315200019503B681A707B689A69796813469B00134422
S315200019605B0013440B4421331A783B685A707B681A
S315200019709A69796813469B0013445B0013440B4411
S3152000198022331A783B689A700023FB7313E07B6836
S315200019909A69F87BF97B7C6813469B0013445B00AD
S315200019A013442344034423331A783B680B44DA70E8
S315200019B0FB7B0133FB733B689B78FA7B9A42E6D329
S315200019C07B689B6901335A4203F0070302F0070242
S315200019D058BF53427A6893617B68DB695A1E7B68DD
S315200019E0DA61002300E0012318461037BD4690BC7B
S315200019F0704780B58AB000AF786039607B689B6895
S31520001A003B620023FB773B681B781B013A685278C0
S31520001A101344BB6000237B7400233B743B689B7894
S31520001A20082B02D93B6808229A703B689B78BB74C6
S31520001A30002387F827300FE097F8272097F82730DC
S31520001A4039680A44D27828333B4403F8152C97F892
S31520001A502730013387F827303B689B7897F8272073
S31520001A609A42E9D307F108031946386A00F0BAFE0C
S31520001A700346FB77FB7F042B04D10548FEF78CFE3B
S31520001A80012300E0002318462837BD4680BD00BF4D
S31520001A90D084002080B483B000AF0346FB71FB796D
S31520001AA003F01F03012202FA03F1064A97F90730D1
S31520001AB05B0942F8231000BF0C37BD465DF8047B56
S31520001AC0704700BF00E100E080B483B000AF03465A
S31520001AD03960FB7197F90730002B0BDA3B68DAB2D5
S31520001AE00C49FB7903F00F03043B1201D2B20B44DD
S31520001AF01A7609E03B68DAB2074997F907301201EE
S31520001B00D2B20B4483F8002300BF0C37BD465DF8E4
S31520001B10047B704700ED00E000E100E080B582B074
S31520001B2000AF786039607B6800229A617B689A6989
S31520001B307B685A617B685A697B68DA61012240F2C8
S31520001B4025510A4805F022FB002240F2277107485A
S31520001B5005F01CFB02212520FFF7B6FF2520FFF705
S31520001B6099FF00BF0837BD4680BD00BF0010014069
S31520001B7080B483B000AF78600B46FB707B68DB696E
S31520001B80B3F5806F17DA7B685B697A681344FA7855
S31520001B9083F820207B685B6901335A42C3F309032B
S31520001BA0C2F3090258BF53427A6853617B68DB69E6
S31520001BB05A1C7B68DA6100BF0C37BD465DF8047B92
S31520001BC0704780B582B000AF786039607B68DB698A
S31520001BD0002B18D17B689B68012240F2277118469A
S31520001BE005F0D4FA0FE03B681B780A2B03D10D21B0
S31520001BF07868FFF7BDFF3B685A1C3A601B78194688
S31520001C007868FFF7B5FF3B681B78002BEBD100BF48
S31520001C1000BF0837BD4680BD80B582B000AF786072
S31520001C2039607B68DB69002B07D17B689B680122C2
S31520001C3040F22771184605F0A9FA3B68DBB219462F
S31520001C407868FFF795FF00BF0837BD4680BD80B591
S31520001C5086B002AF786039607B689B682021184681
S31520001C6005F0DCFA0346012B18D17B689B681846E1
S31520001C7005F0F7F80346FB607B68DB68002B0DD088
S31520001C807B68DA687B681969FB6800930B4600213C
S31520001C900020FFF7BBF9234B01221A607B689B6863
S31520001CA08021184605F0BAFA0346012B34D17B6809
S31520001CB0DB69002B28DD7B6898687B689B697A68DE
S31520001CC0134493F82030194605F0B9F87B689B69D0
S31520001CD001335A42C3F30903C2F3090258BF5342E0
S31520001CE07A6893617B68DB695A1E7B68DA617B6858
S31520001CF0DB69002B10D17B689B68002240F227719C
S31520001D00184605F043FA07E07B689B68002240F2FC
S31520001D102771184605F03AFA002318461037BD46B3
S31520001D2080BD00BF9823012080B483B000AF034656
S31520001D30FB71FB7903F01F03012202FA03F1064A25
S31520001D4097F907305B0942F8231000BF0C37BD46D0
S31520001D505DF8047B704700BF00E100E080B483B0EB
S31520001D6000AF03463960FB7197F90730002B0BDA79
S31520001D703B68DAB20C49FB7903F00F03043B1201EE
S31520001D80D2B20B441A7609E03B68DAB2074997F9D2
S31520001D9007301201D2B20B4483F8002300BF0C3760
S31520001DA0BD465DF8047B704700ED00E000E100E0F1
S31520001DB080B582B000AF78603960002201210748E3
S31520001DC002F087F802211720FFF7C8FF1720FFF738
S31520001DD0ABFF00BF0837BD4680BD00BF00040240F0
S31520001DE080B582B000AF786039607B689B688021BF
S31520001DF0184602F002F8034618460837BD4680BD4D
S31520001E0080B582B000AF786039607B689B683A689D
S31520001E10D2B20121184602F05CF800BF0837BD4651
S31520001E2080BD80B582B000AF786039607B689B68E2
S31520001E300121184602F074F800BF0837BD4680BD60
S31520001E4080B584B000AF7860396007F10803184682
S31520001E5001F0DAFD8023BB6000233B733B68002B37
S31520001E6001D0082300E00C237B730123BB7307F109
S31520001E700803184601F056FD00BF1037BD4680BD49
S31520001E8080B584B002AF78603960802001F00EFE04
S31520001E900346012B14D1802001F022FE7B68DB68EB
S31520001EA0002B10D07B68DA687B681B6900210091C3
S31520001EB000210020FFF7AAF8054B01221A6002E054
S31520001EC00448FEF769FC002318460837BD4680BD46
S31520001ED098230120E4840020314900E03149EFF3C2
S31520001EE0088020ED108A7246EFF3118320E9FC0F5B
S31520001EF02D4FD7F80080C8F800001EE00846FEF7F0
S31520001F004BFC2A48FEF748FC2948FEF745FCD8F842
S31520001F100400FEF78DFC2748FEF73EFCD8F80000AB
S31520001F20FEF757FC2448FEF737FCD8F80000006877
S31520001F30FEF74FFC1D48FEF72FFCDFF88080D8F80F
S31520001F400080C7F8008018E01D48FEF725FCD8F869
S31520001F500400FEF76DFC1B48FEF71EFCD8F80000B7
S31520001F60FEF737FC1448FEF717FCD8F80000006887
S31520001F70FEF72FFC0D48FEF70FFC134A536843F07B
S31520001F800063536000BFD8F80000B0E8FC0F83F36D
S31520001F9011889646B0EC108A80F3088870470000B6
S31520001FA0CC940020DD940020C89400204D9500207C
S31520001FB0FE940020169500201E950020A4230120C3
S31520001FC0279500203C95002000ED00E080B400AF6E
S31520001FD000BFBD465DF8047B704780B586B000AF74
S31520001FE0454801F08DFD454800F080F9444800F051
S31520001FF07DF901214FF0007002F02AFC01214FF0FB
S31520002000806002F025FC0121022002F0C1FB09229A
S315200020100921394801F096FF09220821364801F0A6
S3152000202091FF07F11003184601F0ABFE4FF4007341
S315200020303B6102233B750023BB750023FB750223FE
S315200020407B7507F1100319462B4801F00BFE4FF460
S3152000205080733B6102233B750023BB750123FB750F
S3152000206002237B7507F110031946234801F0FAFD78
S3152000207009220621204801F065FF092205211E4874
S3152000208001F060FF40233B6102233B750023BB75B3
S315200020900023FB7502237B7507F1100319461648AA
S315200020A001F0E0FD20233B6102233B750023BB7535
S315200020B00123FB7502237B7507F1100319460E4891
S315200020C001F0D0FD0023BB720023FB7201233B737A
S315200020D000233B8000237B800023BB800023FB80E2
S315200020E000233B8101237B733B46184600F0F3F91E
S315200020F000BF1837BD4680BD000402400064004082
S315200021000068004080B586B000AF01214FF0005036
S3152000211002F09EFB07F11003184601F032FE202341
S315200021203B6103233B750023FB7507F1100319461A
S315200021300F4801F097FD01F0B3F93B46184601F030
S31520002140F1F900233B6000237B600023FB603B46C4
S315200021501946102001F0B2F90121102001F0F8F9FA
S315200021600021082001F0A2FA00BF1837BD4680BD25
S315200021700000024080B584B000AF01214FF48040BA
S3152000218002F086FB0721012002F0ACFD01F0B0FB36
S315200021903B46184601F038FC80233B6000233B7108
S315200021A00C237B710123BB713B46184601F0BAFB19
S315200021B007F10803184601F0E4FD0223BB60012362
S315200021C03B730123BB730023FB7301237B7307F14E
S315200021D008031946184801F045FD0123BB60012379
S315200021E03B730123BB730023FB7301237B7307F12E
S315200021F008031946104801F035FD012202210E4838
S3152000220001F067FE012201210B4801F062FE8023C6
S31520002210BB6000233B730023BB730023FB730123A6
S315200022207B7307F108031946034801F01BFD00BF25
S315200022301037BD4680BD00BF0004024080B483B085
S3152000224000AFEFF314833B603B6823F003037B600E
S315200022507B6883F3148800BF064B4FF404725A61DF
S31520002260054B4FF000425A6000BF0C37BD465DF863
S31520002270047B704700ED00E030EF00E080B500AF52
S315200022800121082002F0E4FA0121082002F020FCB6
S3152000229000BF80BD80B400AF124A02E0002342F89E
S315200022A0043B114B9A42F9D300BFBD465DF8047B2F
S315200022B0704780B500AFFFF7EDFFFFF787FEFFF70A
S315200022C08CFEFFF71FFFFFF755FFFFF7B7FFFFF75E
S315200022D0D5FF00BF80BD80B400AF00BFBD465DF80E
S315200022E0047B704700A00020D423012080B582B053
S315200022F000AF78607B680E4A93420AD101214FF0E5
S31520002300007002F045FB00214FF0007002F040FB08
S3152000231009E001214FF0806002F03AFB00214FF0E6
S31520002320806002F035FB00BF0837BD4680BD00BF88
S315200023300064004080B485B000AF78603960002327
S31520002340FB730023BB607B681B6823F002027B685B
S315200023501A607B681B6843F001027B681A6002E002
S31520002360BB680133BB607B685B6803F00103012B0C
S3152000237004D0BB684FF6FF729342F1D17B685B684D
S3152000238003F00103012B02D00023FB739CE03B6882
S315200023909B79012B06D17B681B6843F080027B6802
S315200023A01A6005E07B681B6823F080027B681A6050
S315200023B03B68DB79012B06D17B681B6843F0400222
S315200023C07B681A6005E07B681B6823F040027B6807
S315200023D01A603B681B7A012B06D17B681B6843F089
S315200023E020027B681A6005E07B681B6823F02002C8
S315200023F07B681A603B685B7A012B06D17B681B6879
S3152000240043F010027B681A6005E07B681B6823F0A6
S3152000241010027B681A603B689B7A012B06D17B6889
S315200024201B6843F008027B681A6005E07B681B681E
S3152000243023F008027B681A603B68DB7A012B06D101
S315200024407B681B6843F004027B681A6005E07B68A2
S315200024501B6823F004027B681A603B689B789A0706
S315200024603B68DB781B061A433B681B791B041A431F
S315200024703B685B791B051A433B681B88013B1A4363
S315200024807B68DA617B681B6823F001027B681A602F
S315200024900023BB6002E0BB680133BB607B685B68DE
S315200024A003F00103012B04D1BB684FF6FF72934260
S315200024B0F1D17B685B6803F00103012B02D1002375
S315200024C0FB7301E00123FB73FB7B18461437BD46E3
S315200024D05DF8047B704790B484B000AF7860002329
S315200024E0FB607B689B7A1A4601239340FB605A4B1C
S315200024F0D3F80032584A43F00103C2F80032564B53
S31520002500D3F81C22FB68DB4353491340C1F81C3225
S315200025107B681B7B002B29D14F4BD3F80C22FB6801
S31520002520DB434D491340C1F80C327B68DB881B0422
S315200025307A685288144648497A68927A104643EA5D
S31520002540040200F1480341F833207B689B881B0472
S315200025507A681288144640497A68927A104643EA85
S31520002560040200F14803DB000B445A607B681B7BA6
S31520002570012B28D1384BD3F80C223749FB6813435B
S31520002580C1F80C327B681B881B047A685288144673
S3152000259031497A68927A104643EA040200F14803E8
S315200025A041F833207B689B881B047A68D2881446BE
S315200025B029497A68927A104643EA040200F14803D0
S315200025C0DB000B445A607B68DB7A002B09D1224B57
S315200025D0D3F80422FB68DB431F491340C1F80432B9
S315200025E007E01D4BD3F804221B49FB681343C1F8AF
S315200025F004327B681B89002B08D1174BD3F8142291
S31520002600FB68DB4314491340C1F814327B681B89ED
S31520002610012B07D1104BD3F814220F49FB68134323
S31520002620C1F814327B685B7B012B07D10A4BD3F8A8
S315200026301C220949FB681343C1F81C32064BD3F808
S315200026400032054A23F00103C2F8003200BF1037DA
S31520002650BD4690BC704700BF0064004080B483B084
S3152000266000AF78607B6800229A717B680022DA715D
S315200026707B6800221A727B6800225A727B680022CD
S315200026809A727B680022DA727B6800229A707B68D5
S315200026900022DA707B6803221A717B6802225A7143
S315200026A07B6801221A8000BF0C37BD465DF8047B8B
S315200026B0704780B483B000AF0346FB71144BD3F848
S315200026C00032134A43F00103C2F80032104BD3F80C
S315200026D000320F4A23F47C5323F00E03C2F8003253
S315200026E00B4BD3F80022FB791B0209491343C1F88F
S315200026F00032074BD3F80032054A23F00103C2F813
S31520002700003200BF0C37BD465DF8047B704700BF22
S315200027100064004080B483B000AF78600B46FB7045
S31520002720FB78002B06D07B681B6843F480327B68DD
S315200027301A6005E07B681B6823F480327B681A6088
S3152000274000BF0C37BD465DF8047B704780B483B06C
S3152000275000AF78600B46FB70FB78002B1ED07B68A1
S315200027601B6843F080027B681A607B68D3F884314B
S3152000277043F480727B68C3F884217B68D3F8943154
S3152000278043F480727B68C3F894217B68D3F8A43124
S3152000279043F480727B68C3F8A4211DE07B681B6824
S315200027A023F080027B681A607B68D3F8843123F497
S315200027B080727B68C3F884217B68D3F8943123F434
S315200027C080727B68C3F894217B68D3F8A43123F404
S315200027D080727B68C3F8A42100BF0C37BD465DF824
S315200027E0047B704780B485B000AF786039600023E1
S315200027F0FB737B689B6803F08063B3F1806F02D123
S315200028000023FB7315E07B689B6803F00063B3F13C
S31520002810006F02D10123FB730BE07B689B6803F0FA
S315200028208053B3F1805F02D10223FB7301E00423BE
S31520002830FB73FB7B042B00F09F80FB7B7A681833AD
S315200028401B0113441A68FB7B02F0010279681833D6
S315200028501B010B441A603B681B7A002B13D1FB7BB0
S315200028607A6818331B01134419683B681B685B059B
S315200028703A68527A1A43FB7B0A43796818331B015C
S315200028800B441A6015E0FB7B7A6818331B0113444E
S3152000289019683B685B68DB003A68127A13433A682A
S315200028A0527A1A43FB7B0A43796818331B010B447F
S315200028B01A603B689B7A03F00F03DAB23B689A7280
S315200028C0FB7B7A6818331B01134404331A68FB7B9D
S315200028D022F00F02796818331B010B4404331A6067
S315200028E0FB7B7A6818331B01134404331A683B6850
S315200028F09B7A1946FB7B0A43796818331B010B44E4
S3152000290004331A603B689B7B1A063B685B7B1B047F
S315200029101A433B681B7B1B021A433B68DB7A19462A
S31520002920FB7B0A4379681B010B4403F5C4731A60C9
S315200029303B689B7C1A063B685B7C1B041A433B68FE
S315200029401B7C1B021A433B68DB7B1946FB7B0A4335
S3152000295079681B010B4403F5C6731A60FB7B7A6802
S3152000296018331B0113441A68FB7B42F00102796875
S3152000297018331B010B441A60FB7B18461437BD46DF
S315200029805DF8047B704780B485B000AF78600B4655
S31520002990FB700023FB60FB78022B12D0022B16DC87
S315200029A0002B02D0012B06D011E07B689A68314BB0
S315200029B01340FB600EE07B689A682F4B1340FB6048
S315200029C008E07B689A682D4B1340FB6002E00023E9
S315200029D0FB6000BFFB68294A93423DD0FB68274A2B
S315200029E093423CD8FB68264A93422CD0FB68244A63
S315200029F0934234D8FB68204A93422AD0FB681E4A69
S31520002A0093422CD8FB681F4A934219D0FB681D4A73
S31520002A10934224D8FB68174A934217D0FB68154A7D
S31520002A2093421CD8FB68002B04D0FB68164A9342BD
S31520002A3003D014E00223FB6014E00023FB6011E0C6
S31520002A400023FB600EE00023FB600BE00123FB600C
S31520002A5008E00123FB6005E00123FB6002E0002380
S31520002A60FB6000BFFB68DBB218461437BD465DF835
S31520002A70047B7047030000040003000800000310D5
S31520002A8000000110000100080100000480B483B09A
S31520002A9000AF78600B46FB70FB78022B14D0022B1C
S31520002AA019DC002B02D0012B07D014E07B689B6831
S31520002AB043F080027B689A600EE07B689B6843F453
S31520002AC000427B689A6007E07B689B6843F40002BB
S31520002AD07B689A6000E000BF00BF0C37BD465DF8FA
S31520002AE0047B704780B485B000AFF8600B467A60EF
S31520002AF0FB72FB7AFA681B331B0113441B68DBB29B
S31520002B0003F00403DAB27B681A727B681B7A002B07
S31520002B100BD1FB7AFA681B331B0113441B685B0D30
S31520002B20C3F30A027B681A600AE0FB7AFA681B3351
S31520002B301B0113441B68DB0823F060427B685A6044
S31520002B40FB7AFA681B331B0113441B68DBB203F0C4
S31520002B500203DAB27B685A72FB7AFA681B331B01CE
S31520002B60134404331B68DBB203F00F03DAB27B682D
S31520002B709A72FB7AFA681B331B01134404331B68D1
S31520002B801B0ADAB27B68DA74FB7AFA681B011344F3
S31520002B9003F5DC731B68DAB27B68DA72FB7AFA68B3
S31520002BA01B01134403F5DC731B681B0ADAB27B682E
S31520002BB01A73FB7AFA681B01134403F5DC731B684E
S31520002BC01B0CDAB27B685A73FB7AFA681B01134432
S31520002BD003F5DC731B681B0EDAB27B689A73FB7AEB
S31520002BE0FA681B01134403F5DE731B68DAB27B68AF
S31520002BF0DA73FB7AFA681B01134403F5DE731B684C
S31520002C001B0ADAB27B681A74FB7AFA681B01134432
S31520002C1003F5DE731B681B0CDAB27B685A74FB7AE9
S31520002C20FA681B01134403F5DE731B681B0EDAB228
S31520002C307B689A74FB7A002B06D1FB68DB6843F02D
S31520002C402002FB68DA6005E0FB681B6943F020027E
S31520002C50FB681A6100BF1437BD465DF8047B7047D8
S31520002C6080B483B000AF78600B46FB70FB78002BF6
S31520002C7006D17B68DB6843F020027B68DA6005E0DA
S31520002C807B681B6943F020027B681A6100BF0C3702
S31520002C90BD465DF8047B704780B485B000AF786090
S31520002CA00B46FB700023FB73FB78002B06D17B6859
S31520002CB0DB68DBB203F00303FB730BE0FB78012B2D
S31520002CC006D17B681B69DBB203F00303FB7301E0CB
S31520002CD00023FB73FB7B18461437BD465DF8047B47
S31520002CE0704780B485B000AF78600B46FB70002338
S31520002CF0FB734FF6FF73BB60FB78002B20D17B68FC
S31520002D001B6823F0030343F001027B681A6002E08C
S31520002D10BB68013BBB607B685B6803F00303012B48
S31520002D2002D0BB68002BF3D17B685B6803F00303FA
S31520002D30012B02D00023FB734AE00123FB7347E0FB
S31520002D40FB78012B1ED17B681B6823F003027B686E
S31520002D501A6002E0BB68013BBB607B685B6803F0DE
S31520002D600303002B02D0BB68002BF3D17B685B6882
S31520002D7003F00303002B02D00023FB7328E001237A
S31520002D80FB7325E0FB78022B20D17B681B6823F0A0
S31520002D90030343F002027B681A6002E0BB68013B32
S31520002DA0BB607B685B6803F00303022B02D0BB6821
S31520002DB0002BF3D17B685B6803F00303022B02D060
S31520002DC00023FB7304E00123FB7301E00023FB7364
S31520002DD0FB7B18461437BD465DF8047B704780B4EC
S31520002DE085B000AF78600023FB737B681B6823F0F7
S31520002DF0030343F002027B681A607B685B6803F07A
S31520002E000303022B01D10123FB73FB7B18461437E6
S31520002E10BD465DF8047B704780B485B000AF78600E
S31520002E204FF6FF73FB600023FB727B681B6823F061
S31520002E3002027B681A6002E0FB68013BFB607B684C
S31520002E405B6803F00203022B02D1FB68002BF3D14F
S31520002E507B685B6803F00203022B01D00123FB721F
S31520002E60FB7A18461437BD465DF8047B704780B45C
S31520002E7085B000AF78600023FB737B689B69DBB26B
S31520002E8003F07003FB73FB7B18461437BD465DF8D1
S31520002E90047B704780B485B000AF78600023FB7355
S31520002EA07B689B691B0EFB73FB7B18461437BD465C
S31520002EB05DF8047B704780B485B000AF786000234E
S31520002EC0FB737B689B691B0CFB73FB7B18461437D3
S31520002ED0BD465DF8047B704780B485B000AFF860CE
S31520002EE0B9601346FB71FB79002B06D0FB685A6943
S31520002EF0BB681A43FB685A6106E0FB685A69BB68DF
S31520002F00DB431A40FB685A6100BF1437BD465DF8A3
S31520002F10047B704780B485B000AF786039600023A9
S31520002F20FB733B6803F47003002B0DD07B689A6912
S31520002F303B681340C3F31303002B02D00123FB731A
S31520002F4048E00023FB7345E03B6803F08073002BC9
S31520002F500DD07B685A683B681340C3F31303002BDC
S31520002F6002D00123FB7335E00023FB7332E03B687C
S31520002F7003F00063002B0DD07B689A683B681340F2
S31520002F80C3F31303002B02D00123FB7322E000239B
S31520002F90FB731FE03B6803F00073002B0DD07B68AA
S31520002FA0DA683B681340C3F31303002B02D00123D6
S31520002FB0FB730FE00023FB730CE07B681A693B6808
S31520002FC01340C3F31303002B02D00123FB7301E04C
S31520002FD00023FB73FB7B18461437BD465DF8047B44
S31520002FE0704780B485B000AF786039600023FB60FD
S31520002FF03B68174A934203D17B6800229A6121E0FD
S315200030003B68C3F31303FB603B6803F00073002B9C
S3152000301003D07B68FA68DA6014E03B6803F08063CB
S31520003020002B03D07B68FA681A610BE03B6803F03B
S315200030300063002B03D07B68FA689A6002E07B6805
S31520003040FA685A6000BF1437BD465DF8047B7047A6
S315200030507000F03080B584B000AF7860396000230E
S31520003060FB737B685A693B681340002B00F01B8179
S315200030703B68B3F5003F00F0DD803B68B3F5003FC9
S3152000308000F20E813B68B3F5803F00F0CA803B68B2
S31520003090B3F5803F00F204813B68B3F5004F00F0A2
S315200030A0F6803B68B3F5004F00F2FA803B68B3F533
S315200030B0006F00F0E3803B68B3F5006F00F2F0800C
S315200030C03B68B3F5806F00F0D0803B68B3F5806F26
S315200030D000F2E6803B68B3F5007F00F0BD803B68D8
S315200030E0B3F5007F00F2DC803B68B3F5807F00F00B
S315200030F0AA803B68B3F5807F00F2D2803B68202B04
S315200031004CD83B68002B00F0CB803B68013B1F2B43
S3152000311000F2C68001A252F823F000BFA53100209C
S31520003120B7310020A1320020C9310020A132002071
S31520003130A1320020A1320020DB310020A132002064
S31520003140A1320020A1320020A1320020A13200208D
S31520003150A1320020A1320020ED310020A132002032
S31520003160A1320020A1320020A1320020A13200206D
S31520003170A1320020A1320020A1320020A13200205D
S31520003180A1320020A1320020A1320020A13200204D
S31520003190A1320020A1320020FF3100203B68402BC5
S315200031A036D07DE07B689B684249184600F060F97E
S315200031B00346FB7379E07B68DB680321184600F041
S315200031C057F90346FB7370E07B68DB6808211846D5
S315200031D000F04EF90346FB7367E07B68DB6810213D
S315200031E0184600F045F90346FB735EE07B681B69D1
S315200031F00321184600F03CF90346FB7355E07B6833
S315200032001B690821184600F033F90346FB734CE08E
S315200032107B681B691021184600F02AF90346FB73C8
S3152000322043E07B685B680821184600F021F90346D5
S31520003230FB733AE07B685B681021184600F018F9AA
S315200032400346FB7331E07B689B690121184600F039
S315200032500FF90346FB7328E07B689B690221184619
S3152000326000F006F90346FB731FE07B689B69042187
S31520003270184600F0FDF80346FB7316E07B689B6951
S315200032807021184600F0F4F80346FB730DE07B68C6
S315200032905B680421184600F0EBF80346FB7304E054
S315200032A00023FB7301E00023FB73FB7B18461037DA
S315200032B0BD4680BD0101010080B483B000AF7860B7
S315200032C039603B68B3F5003F00F0AA803B68B3F550
S315200032D0003F00F2C3803B68B3F5803F00F09C803E
S315200032E03B68B3F5803F00F2B9803B68B3F5004FE9
S315200032F000F0AD803B68B3F5004F00F2AF803B682D
S31520003300B3F5006F00F09C803B68B3F5006F00F2C8
S31520003310A5803B68B3F5806F00F08E803B68B3F5DF
S31520003320806F00F29B803B68B3F5007F00F08080C1
S315200033303B68B3F5007F00F291803B68B3F5807F50
S3152000334072D03B68B3F5807F00F288803B68202BE3
S315200033504AD83B68002B00F081803B68013B1F2B3D
S315200033607CD801A252F823F0F13300205D340020EE
S315200033705D340020F93300205D3400205D340020C8
S315200033805D340020013400205D3400205D340020AF
S315200033905D3400205D3400205D3400205D34002043
S315200033A05D3400205D3400205D3400205D34002033
S315200033B05D3400205D3400205D3400205D34002023
S315200033C05D3400205D3400205D3400205D34002013
S315200033D05D3400205D3400205D3400205D34002003
S315200033E05D340020093400203B68402B10D035E0A6
S315200033F07B681E4A9A6032E07B680822DA602EE0FB
S315200034007B681022DA602AE07B6808221A6126E0AF
S315200034107B6810221A6122E07B6808225A601EE02F
S315200034207B6810225A601AE07B6804225A6016E0F4
S315200034307B6804225A6012E07B6804225A600EE000
S315200034407B6800229A617B6804225A6007E07B68C9
S3152000345000229A617B6804225A6000E000BF00BF08
S315200034600C37BD465DF8047B704700BF01010100A3
S3152000347080B485B000AF786039600023FB737A682A
S315200034803B681340002B02D00123FB7301E000238D
S31520003490FB73FB7B18461437BD465DF8047B7047EB
S315200034A080B500AF01214FF0005001F071FA0021E4
S315200034B04FF0005001F06CFA00BF80BD80B485B09B
S315200034C000AF786039600023FB600023BB60144B9B
S315200034D01B68FB6040F6FE727B6802FA03F3DB434F
S315200034E0FA681340FB603B681A683B685B681A43BE
S315200034F03B689B681A433B68DB681343BB60BA682A
S315200035007B6802FA03F3FA681343FB60044AFB68FC
S31520003510136000BF1437BD465DF8047B704700BFBB
S315200035200074004080B483B000AF78607B680022CE
S315200035301A607B6800225A607B6800229A607B684A
S315200035400022DA6000BF0C37BD465DF8047B704769
S3152000355080B483B000AF78600B46FB70FB78002BFD
S3152000356009D00D4B1A6801217B6801FA03F30A4939
S3152000357013430B6009E0084B1A6801217B6801FAA6
S3152000358003F3DB43044913400B6000BF0C37BD46F1
S315200035905DF8047B704700BF0074004080B483B0A0
S315200035A000AF78600B46FB70FB78002B0AD00E4BE1
S315200035B05A687B681B09012101FA03F30A49134360
S315200035C04B600AE0084B5A687B681B09012101FA07
S315200035D003F3DB43044913404B6000BF0C37BD4661
S315200035E05DF8047B704700BF0074004080B483B050
S315200035F000AF0346FB71FB79002B06D0094B5B68B5
S31520003600084A43F00303536005E0064B5B68054A0E
S3152000361023F00303536000BF0C37BD465DF8047BDF
S31520003620704700BF0074004080B485B000AFF860DA
S31520003630B9601346FB71FB79002B09D00C4B1A6835
S31520003640B968FB6801FA03F3094913430B6009E0E3
S31520003650074B1A68B968FB6801FA03F3DB43044990
S3152000366013400B6000BF1437BD465DF8047B7047DE
S315200036700074004080B485B000AF78600B467B8034
S315200036800023FB60084BFB60FA687B681344083311
S31520003690FB60FB681A467B88136000BF1437BD4663
S315200036A05DF8047B704700BF0074004080B485B08D
S315200036B000AF78600B467B800023FB60084BFB60E5
S315200036C0FA687B6813441433FB60FB681A467B88D0
S315200036D0136000BF1437BD465DF8047B704700BFFA
S315200036E00074004080B485B000AF78600B467B80C4
S315200036F013463B800023FB600023BB607B68082BBE
S3152000370005D17B881A023B881343FB6004E07B8843
S315200037101A043B881343FB60074BBB607A68BB687F
S3152000372013442033BB60BB68FA681A6000BF1437A5
S31520003730BD465DF8047B70470074004080B485B0B8
S3152000374000AF78600023FB60084BFB607B689A081B
S31520003750FB6813442C33FB60FB681B689BB218463E
S315200037601437BD465DF8047B704700BF00740040E7
S3152000377080B483B000AF78600B46FB70FB78002BDB
S315200037800AD00E4B1A684FF480517B6801FA03F376
S315200037900A4913430B600AE0084B1A684FF480511C
S315200037A07B6801FA03F3DB43044913400B6000BF37
S315200037B00C37BD465DF8047B704700BF007400409F
S315200037C080B485B000AFF860B9601346FB71FB7911
S315200037D0002B09D00C4B1A68B968FB6801FA03F371
S315200037E0094913430B6009E0074B1A68B968FB685F
S315200037F001FA03F3DB43044913400B6000BF14377F
S31520003800BD465DF8047B70470074004080B485B0E7
S3152000381000AF786039600023FB730A4B5A6B396816
S315200038207B6801FA03F31340002B02D00123FB73BC
S3152000383001E00023FB73FB7B18461437BD465DF879
S31520003840047B70470074004080B483B000AF78607A
S31520003850396006493A687B6802FA03F34B6300BF76
S315200038600C37BD465DF8047B704700BF00740040EE
S3152000387080B485B000AF786039600023FB730023E5
S31520003880BB60104B1A6839687B6801FA03F3134052
S31520003890BB600C4B5A6B39687B6801FA03F3134003
S315200038A0002B05D0BB68002B02D00123FB7301E05F
S315200038B00023FB73FB7B18461437BD465DF8047B5B
S315200038C0704700BF0074004080B483B000AF7860BA
S315200038D0396006493A687B6802FA03F34B6300BFF6
S315200038E00C37BD465DF8047B704700BF007400406E
S315200038F080B400AF094B00221A60084B00225A60A0
S31520003900064B00229A60054B0022DA60034B044ADC
S315200039105A6100BFBD465DF8047B7047003C0140FC
S31520003920FFFF7F0080B485B000AF78600023FB6086
S31520003930344BFB607B689B79002B4FD0314B1A6848
S315200039407B681B68DB432F4913400B602D4B5A685D
S315200039507B681B68DB432B4913404B607B681B79D4
S315200039601A46FB681344FB60FB6819687B681A6873
S31520003970FB680A431A60234B9A687B681B68DB4303
S31520003980204913408B601F4BDA687B681B68DB433A
S315200039901C491340CB607B685B79102B0ED1194BE9
S315200039A09A687B681B68174913438B60154BDA6846
S315200039B07B681B6813491343CB601DE0114BFB60EA
S315200039C07B685B791A46FB681344FB60FB681968C1
S315200039D07B681A68FB680A431A600DE07B681B79CE
S315200039E01A46FB681344FB60FB6819687B681B68F2
S315200039F0DA43FB680A401A6000BF1437BD465DF8FB
S31520003A00047B7047003C014080B483B000AF7860EF
S31520003A107B6800221A607B6800221A717B680C2260
S31520003A205A717B6800229A7100BF0C37BD465DF83B
S31520003A30047B704780B483B000AF7860054B1A6969
S31520003A4004497B6813430B6100BF0C37BD465DF804
S31520003A50047B7047003C014080B485B000AF78609D
S31520003A600023FB73084B5A697B681340002B02D056
S31520003A700123FB7301E00023FB73FB7B18461437FD
S31520003A80BD465DF8047B7047003C014080B483B09E
S31520003A9000AF7860044A7B68536100BF0C37BD468F
S31520003AA05DF8047B704700BF003C014080B485B0C0
S31520003AB000AF78600023FB73084B5A697B6813407C
S31520003AC0002B02D00123FB7301E00023FB73FB7B59
S31520003AD018461437BD465DF8047B7047003C01400C
S31520003AE080B483B000AF7860044A7B68536100BF1E
S31520003AF00C37BD465DF8047B704700BF003C014093
S31520003B0080B582B000AF78607B684B4A934208D17B
S31520003B100121012000F0DCFE0021012000F0D8FE6A
S31520003B2086E07B68454A934208D10121022000F0B5
S31520003B30CFFE0021022000F0CBFE79E07B68404AD0
S31520003B40934208D10121042000F0C2FE0021042066
S31520003B5000F0BEFE6CE07B683A4A934208D1012110
S31520003B60082000F0B5FE0021082000F0B1FE5FE03D
S31520003B707B68354A934208D10121102000F0A8FE27
S31520003B800021102000F0A4FE52E07B682F4A9342C9
S31520003B9008D10121202000F09BFE0021202000F0EA
S31520003BA097FE45E07B682A4A934208D101214020AE
S31520003BB000F08EFE0021402000F08AFE38E07B686F
S31520003BC0244A934208D10121802000F081FE002161
S31520003BD0802000F07DFE2BE07B681F4A93420AD1AD
S31520003BE001214FF4807000F073FE00214FF48070A5
S31520003BF000F06EFE1CE07B68184A93420AD1012130
S31520003C004FF4007000F064FE00214FF4007000F0C5
S31520003C105FFE0DE07B68124A934209D101214FF4E1
S31520003C20806000F055FE00214FF4806000F050FEC9
S31520003C3000BF0837BD4680BD000002400004024098
S31520003C4000080240000C024000100240001402400E
S31520003C5000180240001C02400020024000240240BE
S31520003C600028024080B487B000AF78603960002316
S31520003C707B6100233B610023FB6000237B6176E0B0
S31520003C8001227B6902FA03F33B613B681B683A69B0
S31520003C901340FB60FA683B699A4265D17B681A68D3
S31520003CA07B695B00032101FA03F3DB431A407B683F
S31520003CB01A607B681A683B681B7919467B695B002A
S31520003CC001FA03F31A437B681A603B681B79012BC0
S31520003CD003D03B681B79022B2ED17B689A687B69BF
S31520003CE05B00032101FA03F3DB431A407B689A60E9
S31520003CF07B689A683B685B7919467B695B0001FAA9
S31520003D0003F31A437B689A607B685A687B699BB287
S31520003D10194601238B40DB431A407B685A607B6837
S31520003D205B683A68927911467A6992B201FA02F290
S31520003D3092B21A437B685A607B68DA687B699BB2C9
S31520003D405B00032101FA03F3DB431A407B68DA6048
S31520003D507B68DA683B68DB7919467B695B0001FA88
S31520003D6003F31A437B68DA607B6901337B617B69E5
S31520003D700F2B85D900BF00BF1C37BD465DF8047BDD
S31520003D80704780B483B000AF78607B684FF6FF72CF
S31520003D901A607B6800221A717B6800225A717B6840
S31520003DA000229A717B680022DA7100BF0C37BD466B
S31520003DB05DF8047B704780B485B000AF78600B4611
S31520003DC07B804FF48033FB607A88FB681343FB606B
S31520003DD0FA687B68DA617A887B68DA61FA687B68D8
S31520003DE0DA617B68DB69FB607B68DB69FB6000BFAF
S31520003DF01437BD465DF8047B704780B485B000AFAC
S31520003E0078600B467B800023FB737B681A697B886E
S31520003E101340002B02D00123FB7301E00023FB7328
S31520003E20FB7B18461437BD465DF8047B704780B48B
S31520003E3083B000AF78607B681B699BB218460C374D
S31520003E40BD465DF8047B704780B485B000AF7860CE
S31520003E500B467B800023FB737B685A697B88134063
S31520003E60002B02D00123FB7301E00023FB73FB7BB5
S31520003E7018461437BD465DF8047B704780B483B07E
S31520003E8000AF78607B685B699BB218460C37BD46ED
S31520003E905DF8047B704780B483B000AF78600B4632
S31520003EA07B807B687A881A8300BF0C37BD465DF815
S31520003EB0047B704780B483B000AF78600B467B806C
S31520003EC07B687A885A8300BF0C37BD465DF8047B31
S31520003ED0704780B483B000AF78600B467B80134672
S31520003EE07B707B78002B03D07B687A881A8302E06C
S31520003EF07B687A885A8300BF0C37BD465DF8047B01
S31520003F00704780B483B000AF78600B467B807A8898
S31520003F107B685A6100BF0C37BD465DF8047B70474D
S31520003F2080B483B000AF78600B467B807B685A698B
S31520003F307B885A407B685A6100BF0C37BD465DF8C6
S31520003F40047B704780B485B000AF78600B467B80D9
S31520003F5013467B700023FB600023BB607A787B8846
S31520003F6003F007039B0002FA03F3FB607B88DB0860
S31520003F709BB21A467B68083253F822207B8803F0CE
S31520003F8007039B000F2101FA03F3DB437988C90855
S31520003F9089B2084602EA03017B6800F1080243F869
S31520003FA022107B88DB089BB21A467B68083253F8BE
S31520003FB02230FA681343BB607B88DB089BB21A4623
S31520003FC07B680832B96843F8221000BF1437BD4613
S31520003FD05DF8047B704700BF80B400AF164B1B68AA
S31520003FE0154A43F001031360134B00229A60124BCB
S31520003FF01B68114A23F0A85323F4102313600E4B99
S315200040000E4A5A600C4B0E4AC3F884200A4B0D4ABE
S31520004010C3F88820084B1B68074A23F480231360C3
S31520004020054B0022DA60044B0022C3F88C2000BF27
S31520004030BD465DF8047B70470038024010300024EE
S31520004040003000200030002480B483B000AF034647
S31520004050FB71064B00221A70044AFB79137000BFCD
S315200040600C37BD465DF8047B704700BF023802401E
S3152000407080B582B000AF00233B600023FB71002394
S31520004080BB71312000F08AFD0346BB713B680133CA
S315200040903B603B68B3F5A04F02D0BB79002BF0D034
S315200040A0312000F07BFD0346002B02D00123FB715B
S315200040B001E00023FB71FB7918460837BD4680BD19
S315200040C080B485B000AF0346FB710023FB600A4B2A
S315200040D01B68FB60FB6823F0F803FB60FB79DB00C1
S315200040E0FA681343FB60044AFB68136000BF143769
S315200040F0BD465DF8047B70470038024080B483B02B
S3152000410000AF0346FB71044AFB79136000BF0C37EE
S31520004110BD465DF8047B70470000474280B483B0FB
S3152000412000AF0346FB710D4B00221A700B4B002289
S315200041301A70FB79012B02D0042B04D007E0074B21
S3152000414001221A7003E0054B05221A7000BF00BF3A
S315200041500C37BD465DF8047B704700BF70380240BF
S3152000416080B483B000AF0346FB71044AFB79136029
S3152000417000BF0C37BD465DF8047B7047800E474272
S3152000418080B485B000AFF860B9607A603B607B6828
S315200041909A01BB681A433B685B08013B1B041A4320
S315200041A0FB681A43BB691B06044913434B6000BFD7
S315200041B01437BD465DF8047B704700BF00380240C7
S315200041C080B483B000AF0346FB71044AFB791360C9
S315200041D000BF0C37BD465DF8047B70476000474240
S315200041E080B483B000AF786039607B689A013B6801
S315200041F01B0705491343C1F8843000BF0C37BD4661
S315200042005DF8047B704700BF0038024080B483B05D
S3152000421000AF0346FB71044AFB79136000BF0C37DD
S31520004220BD465DF8047B70476800474280B485B080
S3152000423000AFF860B9607A60FB689A01BB681B061C
S315200042401A437B681B0705491343C1F8883000BF12
S315200042501437BD465DF8047B704700BF0038024026
S3152000426080B483B000AF0346FB71044AFB79136028
S3152000427000BF0C37BD465DF8047B7047700047428F
S3152000428080B483B000AF0346FB71044AFB79136008
S3152000429000BF0C37BD465DF8047B70474C00474293
S315200042A080B485B000AF786039600023FB600B4B8B
S315200042B09B68FB60FB6823F0EC63FB607A683B68D5
S315200042C01343FA681343FB60044AFB68936000BFFC
S315200042D01437BD465DF8047B704700BF00380240A6
S315200042E080B485B000AF786039600023FB600B4B4B
S315200042F09B68FB60FB6823F07843FB607A683B6829
S315200043001343FA681343FB60044AFB68936000BFBB
S315200043101437BD465DF8047B704700BF0038024065
S3152000432080B485B000AF78600023FB60094B9B68A2
S31520004330FB60FB6823F00303FB60FA687B6813438A
S31520004340FB60044AFB68936000BF1437BD465DF8E6
S31520004350047B70470038024080B400AF054B9B6851
S31520004360DBB203F00C03DBB21846BD465DF8047BD6
S31520004370704700BF0038024080B485B000AF786037
S315200043800023FB60094B9B68FB60FB6823F0F0036E
S31520004390FB60FA687B681343FB60044AFB68936002
S315200043A000BF1437BD465DF8047B704700380240D5
S315200043B080B485B000AF78600023FB60094B9B6812
S315200043C0FB60FB6823F4E053FB60FA687B681343C9
S315200043D0FB60044AFB68936000BF1437BD465DF856
S315200043E0047B70470038024080B485B000AF786007
S315200043F00023FB600A4B9B68FB60FB6823F4604349
S31520004400FB607B68DB00FA681343FB60044AFB68A9
S31520004410936000BF1437BD465DF8047B704700BF2C
S315200044200038024080B489B000AF78600023BB61B9
S3152000443000237B610023FB6102233B610023FB6099
S315200044400223BB604A4B9B6803F00C03BB61BB692C
S31520004450082B11D0BB69082B44D8BB69002B03D08D
S31520004460BB69042B04D03DE07B68424A1A603DE0DC
S315200044707B68414A1A6039E03D4B5B689B0D03F02F
S315200044800103FB603A4B5B6803F03F03BB60FB68AC
S31520004490002B0CD0384ABB68B2FBF3F3344A52687F
S315200044A09209C2F3080202FB03F3FB610BE0314AD7
S315200044B0BB68B2FBF3F32E4A52689209C2F3080294
S315200044C002FB03F3FB612A4B5B681B0C03F003031F
S315200044D001335B003B61FA693B69B2FBF3F27B680F
S315200044E01A6003E07B68234A1A6000BF204B9B6852
S315200044F003F0F003BB61BB691B09BB611F4ABB69A3
S3152000450013441B78DBB27B617B681A687B69DA40CF
S315200045107B685A60164B9B6803F4E053BB61BB690A
S315200045209B0ABB61154ABB6913441B78DBB27B61CE
S315200045307B685A687B69DA407B689A600C4B9B687B
S3152000454003F46043BB61BB695B0BBB610B4ABB6970
S3152000455013441B78DBB27B617B685A687B69DA403F
S315200045607B68DA6000BF2437BD465DF8047B704760
S31520004570003802400024F40000127A00088500204A
S3152000458080B485B000AF78600023FB607B6803F4BD
S315200045904073B3F5407F11D10F4B9B68FB60FB68DE
S315200045A023F4F813FB607B6823F0704323F44073F5
S315200045B0FA681343FB60084AFB689360064B1A6F40
S315200045C07B68C3F30B03044913430B6700BF1437FF
S315200045D0BD465DF8047B70470038024080B483B046
S315200045E000AF0346FB71044AFB79136000BF0C370A
S315200045F0BD465DF8047B70473C0E474280B483B0CD
S3152000460000AF0346FB71044AFB79136000BF0C37E9
S31520004610BD465DF8047B7047400E474280B483B0A8
S3152000462000AF7860044A7B68136000BF0C37BD4634
S315200046305DF8047B704700BF5C01474280B485B0BB
S3152000464000AF78600023FB600B4BD3F88C30FB6007
S31520004650FB6823F01F03FB607B68013BFA6813436A
S31520004660FB60054AFB68C2F88C3000BF1437BD4694
S315200046705DF8047B704700BF0038024080B485B0E7
S3152000468000AF78600023FB600B4BD3F88C30FB60C7
S31520004690FB6823F4F853FB607B68013B1B02FA6836
S315200046A01343FB60044AFB68C2F88C3000BF143702
S315200046B0BD465DF8047B70470038024080B485B063
S315200046C000AF78600023FB600A4BD3F88C30FB6088
S315200046D0FB6823F44013FB60FA687B681343FB6096
S315200046E0044AFB68C2F88C3000BF1437BD465DF81B
S315200046F0047B70470038024080B485B000AF7860F4
S315200047000023FB600A4BD3F88C30FB60FB6823F454
S315200047104003FB60FA687B681343FB60044AFB682E
S31520004720C2F88C3000BF1437BD465DF8047B704755
S315200047300038024080B485B000AF78600023FB606B
S315200047400A4BD3F88C30FB60FB6823F44033FB60C4
S31520004750FA687B681343FB60044AFB68C2F88C3016
S3152000476000BF1437BD465DF8047B70470038024011
S3152000477080B483B000AF7860044A7B68136000BFC2
S315200047800C37BD465DF8047B704700BFE0114742F9
S3152000479080B483B000AF78600B46FB70FB78002BAB
S315200047A006D00A4B1A6B09497B6813430B6306E054
S315200047B0064B1A6B7B68DB43044913400B6300BF2F
S315200047C00C37BD465DF8047B704700BF00380240B9
S315200047D080B483B000AF78600B46FB70FB78002B6B
S315200047E006D00A4B5A6B09497B6813434B6306E094
S315200047F0064B5A6B7B68DB43044913404B6300BF6F
S315200048000C37BD465DF8047B704700BF0038024078
S3152000481080B483B000AF78600B46FB70FB78002B2A
S3152000482006D00A4B9A6B09497B6813438B6306E0D3
S31520004830064B9A6B7B68DB43044913408B6300BFAE
S315200048400C37BD465DF8047B704700BF0038024038
S3152000485080B483B000AF78600B46FB70FB78002BEA
S3152000486006D00A4B1A6C09497B6813430B6406E091
S31520004870064B1A6C7B68DB43044913400B6400BF6C
S315200048800C37BD465DF8047B704700BF00380240F8
S3152000489080B483B000AF78600B46FB70FB78002BAA
S315200048A006D00A4B5A6C09497B6813434B6406E0D1
S315200048B0064B5A6C7B68DB43044913404B6400BFAC
S315200048C00C37BD465DF8047B704700BF00380240B8
S315200048D080B483B000AF78600B46FB70FB78002B6A
S315200048E006D00A4B1A6909497B6813430B6106E017
S315200048F0064B1A697B68DB43044913400B6100BFF2
S315200049000C37BD465DF8047B704700BF0038024077
S3152000491080B483B000AF78600B46FB70FB78002B29
S3152000492006D00A4B5A6909497B6813434B6106E056
S31520004930064B5A697B68DB43044913404B6100BF31
S315200049400C37BD465DF8047B704700BF0038024037
S3152000495080B483B000AF78600B46FB70FB78002BE9
S3152000496006D00A4B9A6909497B6813438B6106E096
S31520004970064B9A697B68DB43044913408B6100BF71
S315200049800C37BD465DF8047B704700BF00380240F7
S3152000499080B483B000AF78600B46FB70FB78002BA9
S315200049A006D00A4B1A6A09497B6813430B6206E054
S315200049B0064B1A6A7B68DB43044913400B6200BF2F
S315200049C00C37BD465DF8047B704700BF00380240B7
S315200049D080B483B000AF78600B46FB70FB78002B69
S315200049E006D00A4B5A6A09497B6813434B6206E094
S315200049F0064B5A6A7B68DB43044913404B6200BF6F
S31520004A000C37BD465DF8047B704700BF0038024076
S31520004A1080B483B000AF78600B46FB70FB78002B28
S31520004A2006D00A4B1A6D09497B6813430B6506E0CD
S31520004A30064B1A6D7B68DB43044913400B6500BFA8
S31520004A400C37BD465DF8047B704700BF0038024036
S31520004A5080B483B000AF78600B46FB70FB78002BE8
S31520004A6006D00A4B5A6D09497B6813434B6506E00D
S31520004A70064B5A6D7B68DB43044913404B6500BFE8
S31520004A800C37BD465DF8047B704700BF00380240F6
S31520004A9080B483B000AF78600B46FB70FB78002BA8
S31520004AA006D00A4B9A6D09497B6813438B6506E04D
S31520004AB0064B9A6D7B68DB43044913408B6500BF28
S31520004AC00C37BD465DF8047B704700BF00380240B6
S31520004AD080B483B000AF78600B46FB70FB78002B68
S31520004AE006D00A4B1A6E09497B6813430B6606E00B
S31520004AF0064B1A6E7B68DB43044913400B6600BFE6
S31520004B000C37BD465DF8047B704700BF0038024075
S31520004B1080B483B000AF78600B46FB70FB78002B27
S31520004B2006D00A4B5A6E09497B6813434B6606E04A
S31520004B30064B5A6E7B68DB43044913404B6600BF25
S31520004B400C37BD465DF8047B704700BF0038024035
S31520004B5080B483B000AF03460A46FB711346BB718F
S31520004B60BB79002B08D00C4B1B78DAB20A49FB79AB
S31520004B701343DBB20B7009E0074B1B78DAB2FB79E3
S31520004B80DB43DBB204491340DBB20B7000BF0C37AA
S31520004B90BD465DF8047B70470D38024080B487B06F
S31520004BA000AF0346FB710023FB6000237B610023DB
S31520004BB0FB74FB795B09DBB2FB60FB68012B03D13D
S31520004BC0124B1B687B6109E0FB68022B03D10F4B5C
S31520004BD01B6F7B6102E00D4B5B6F7B61FB7903F002
S31520004BE01F03FB607A69FB6822FA03F303F00103D3
S31520004BF0002B02D00123FB7401E00023FB74FB7C15
S31520004C0018461C37BD465DF8047B704700380240C5
S31520004C1080B400AF054B5B6F044A43F08073536743
S31520004C2000BFBD465DF8047B704700BF00380240D8
S31520004C3080B485B000AF0346FB710023FB73094B9C
S31520004C40DA68FB791340002B02D00123FB7301E0C5
S31520004C500023FB73FB7B18461437BD465DF8047BA7
S31520004C60704700BF0038024080B483B000AF0346CF
S31520004C70FB71044AFB79137000BF0C37BD465DF803
S31520004C80047B70470E38024080B500AF01214FF4F7
S31520004C908040FFF79DFE00214FF48040FFF798FEED
S31520004CA000BF80BD80B483B000AF0346FB71044AC9
S31520004CB0FB79136000BF0C37BD465DF8047B704757
S31520004CC00038014080B483B000AF0346FB71044A2C
S31520004CD0FB79136000BF0C37BD465DF8047B704737
S31520004CE02000274280B485B000AF03460A46FB71F8
S31520004CF01346BB710023FB60BB7903F003039B00C3
S31520004D000F2202FA03F3FB60164ABB799B08DBB23B
S31520004D10023352F82320FB68DB431248B97989080D
S31520004D20C9B21A408B1C40F823200E4ABB799B0837
S31520004D30DBB2023352F82320F979BB7903F003035F
S31520004D409B0001FA03F30748B9798908C9B21A43C7
S31520004D508B1C40F8232000BF1437BD465DF8047B2A
S31520004D60704700BF0038014080B483B000AF786040
S31520004D70044A7B68136000BF0C37BD465DF8047B90
S31520004D80704700BFDC00274280B483B000AF0346E3
S31520004D90FB71044AFB79136000BF0C37BD465DF8F2
S31520004DA0047B70470004274280B483B000AF002301
S31520004DB0FB71094B1B6A03F48073002B02D001237D
S31520004DC0FB7101E00023FB71FB7918460C37BD46C9
S31520004DD05DF8047B704700BF0038014080B582B083
S31520004DE000AF78607B68604A934208D10121012098
S31520004DF0FFF7EEFD00210120FFF7EAFDAFE07B681B
S31520004E00B3F1804F08D101210120FFF7C1FD002118
S31520004E100120FFF7BDFDA2E07B68544A934208D1EA
S31520004E2001210220FFF7B4FD00210220FFF7B0FD8B
S31520004E3095E07B684E4A934208D101210420FFF772
S31520004E40A7FD00210420FFF7A3FD88E07B68494ADF
S31520004E50934208D101210820FFF79AFD002108205E
S31520004E60FFF796FD7BE07B68434A934208D10121F8
S31520004E701020FFF78DFD00211020FFF789FD6EE041
S31520004E807B683E4A934208D101212020FFF780FD0E
S31520004E9000212020FFF77CFD61E07B68384A9342A1
S31520004EA008D101210220FFF793FD00210220FFF700
S31520004EB08FFD54E07B68334A93420AD101214FF497
S31520004EC08030FFF785FD00214FF48030FFF780FD0D
S31520004ED045E07B682C4A93420AD101214FF40030E9
S31520004EE0FFF776FD00214FF40030FFF771FD36E025
S31520004EF07B68264A93420AD101214FF48020FFF78E
S31520004F0067FD00214FF48020FFF762FD27E07B68D4
S31520004F101F4A934208D101214020FFF739FD002185
S31520004F204020FFF735FD1AE07B681A4A934208D1E4
S31520004F3001218020FFF72CFD00218020FFF728FD8E
S31520004F400DE07B68144A934209D101214FF4807009
S31520004F50FFF71EFD00214FF48070FFF719FD00BFFB
S31520004F600837BD4680BD00BF000001400004004058
S31520004F7000080040000C00400010004000140040D3
S31520004F800004014000400140004401400048014027
S31520004F9000180040001C00400020004080B485B06E
S31520004FA000AF786039600023FB817B681B88FB811A
S31520004FB07B68294A934213D07B68284A93420FD0B4
S31520004FC07B68B3F1804F0BD07B68254A934207D08C
S31520004FD07B68244A934203D07B68234A934208D1B4
S31520004FE0FB8923F07003FB813B685A88FB891343B6
S31520004FF0FB817B681D4A93420CD07B681C4A9342F6
S3152000500008D0FB8923F44073FB813B681A89FB890E
S315200050101343FB817B68FA891A803B685A687B6850
S31520005020DA623B681A887B681A857B680A4A93424B
S3152000503003D07B68094A934204D13B689B7A1A467F
S315200050407B681A867B6801229A8200BF1437BD4688
S315200050505DF8047B704700BF00000140000401405A
S315200050600004004000080040000C004000100040F2
S315200050700014004080B483B000AF78607B684FF0A6
S31520005080FF325A607B6800221A807B6800221A81D0
S315200050907B6800225A807B6800229A7200BF0C37F8
S315200050A0BD465DF8047B704780B483B000AF78605E
S315200050B00B467B8013463B807B687A881A857B6803
S315200050C03A889A8200BF0C37BD465DF8047B70474C
S315200050D080B485B000AF78600B467B800023FB81CF
S315200050E07B681B88FB81FB8923F07003FB81FA898F
S315200050F07B881343FB817B68FA891A8000BF1437AB
S31520005100BD465DF8047B704780B483B000AF7860FD
S3152000511039607B683A685A6200BF0C37BD465DF835
S31520005120047B704780B483B000AF786039607B68B9
S315200051303A68DA6200BF0C37BD465DF8047B7047DB
S3152000514080B483B000AF78607B685B6A18460C3702
S31520005150BD465DF8047B704780B483B000AF7860AD
S315200051607B681B8D9BB218460C37BD465DF8047BC9
S31520005170704780B483B000AF78600B46FB70FB7835
S31520005180002B08D07B681B889BB243F002039AB29F
S315200051907B681A8007E07B681B889BB223F002039A
S315200051A09AB27B681A8000BF0C37BD465DF8047B37
S315200051B0704780B483B000AF78600B467B807B88D5
S315200051C0002B08D07B681B889BB243F004039AB25D
S315200051D07B681A8007E07B681B889BB223F0040358
S315200051E09AB27B681A8000BF0C37BD465DF8047BF7
S315200051F0704780B483B000AF78600B46FB70FB78B5
S31520005200002B08D07B681B889BB243F080039AB2A0
S315200052107B681A8007E07B681B889BB223F080039B
S315200052209AB27B681A8000BF0C37BD465DF8047BB6
S31520005230704780B483B000AF78600B467B807B6874
S315200052401B889BB223F008039AB27B681A807B687E
S315200052501B889AB27B8813439AB27B681A8000BF58
S315200052600C37BD465DF8047B704780B483B000AF31
S3152000527078600B467B807B681B889BB223F4407347
S315200052809AB27B681A807B681B889AB27B88134304
S315200052909AB27B681A8000BF0C37BD465DF8047B46
S315200052A0704780B483B000AF78600B46FB70FB7804
S315200052B0002B08D07B681B889BB243F001039AB26F
S315200052C07B681A8007E07B681B889BB223F001036A
S315200052D09AB27B681A8000BF0C37BD465DF8047B06
S315200052E0704780B485B000AF7860396000237B8139
S315200052F00023FB810023BB817B681B8C9BB223F0A0
S3152000530001039AB27B681A847B681B8CFB817B68BD
S315200053109B88BB817B681B8B7B817B8923F07003F9
S315200053207B817B8923F003037B813B681A887B89F9
S3152000533013437B81FB8923F00203FB813B689A8917
S31520005340FB891343FB813B685A88FB891343FB8106
S315200053507B681F4A934203D07B681E4A934223D11F
S31520005360FB8923F00803FB813B68DA89FB89134319
S31520005370FB81FB8923F00403FB813B689A88FB8928
S315200053801343FB81BB8923F48073BB81BB8923F440
S315200053900073BB813B681A8ABB891343BB813B6878
S315200053A05A8ABB891343BB817B68BA899A807B68FA
S315200053B07A891A833B689A687B685A637B68FA897C
S315200053C01A8400BF1437BD465DF8047B704700BFC2
S315200053D0000001400004014080B485B000AF786031
S315200053E0396000237B810023FB810023BB817B68FE
S315200053F01B8C9BB223F010039AB27B681A847B68BD
S315200054001B8CFB817B689B88BB817B681B8B7B818C
S315200054107B8923F4E0437B817B8923F440737B8162
S315200054203B681B881B029AB27B8913437B81FB89CD
S3152000543023F02003FB813B689B891B019AB2FB89E1
S315200054401343FB813B685B881B019AB2FB8913439C
S31520005450FB817B68224A934203D07B68214A934290
S315200054602BD1FB8923F08003FB813B68DB891B0161
S315200054709AB2FB891343FB81FB8923F04003FB810E
S315200054803B689B881B019AB2FB891343FB81BB892E
S3152000549023F48063BB81BB8923F40063BB813B6813
S315200054A01B8A9B009AB2BB891343BB813B685B8AEC
S315200054B09B009AB2BB891343BB817B68BA899A80C9
S315200054C07B687A891A833B689A687B689A637B68CB
S315200054D0FA891A8400BF1437BD465DF8047B7047ED
S315200054E0000001400004014080B485B000AF786020
S315200054F0396000237B810023FB810023BB817B68ED
